:020000040000FA
:10000000000000008031212880313E28A701A60091
:10001000FF30A607031CA707031C08000330A50038
:10002000E6301420F533A501A400000002300000E2
:100030000310A43B0301A53B0318F933080040015A
:100040000800DF3084002330850080010130840205
:100050000030853B1F300502031DF7337E01B801D8
:10006000C301CE01BB01C601D101BC01C701D20150
:1000700053019001940140018231A02A4001A73030
:1000800084002030850020081A0022081A00230866
:100090001A0028088000003042019D1801304001FC
:1000A000A800003042011D1901304001A804803130
:1000B00003195D2842011D121D16003054019D18C0
:1000C00001304001A800003054011D1901304001E9
:1000D000A804803103196F2854011D121D168031A8
:1000E0004E010F084001891EB12852081E3E8400AF
:1000F00020308501853D420119088000093040010A
:1001000052028031031DAD284201A4010A30420190
:100110002402803140010318A828420124081E3E11
:10012000840020308501853D00084001A000420187
:1001300024080A3E840020308501853D40012008C6
:10014000800001304201A40780314001031C862851
:100150002914D201D4018031B028D20A0830D40049
:10016000BE3300304E010F1A01304001A8000030AC
:1001700029190130A80580310319D52841015E08ED
:10018000663E840020308501853D000842019A00CA
:100190004101DE0A5E08310280314001031DD3288F
:1001A00029114E0119124001DC3300304E010F1AA3
:1001B00001304001A800013029190030A805803124
:1001C0000319E4284E01191281314E010F08400134
:1001D000891F5129813154011D084001891C0229C0
:1001E00054011D1200001D1680314E010F08400100
:1001F000891FFF28540119084001E900F533E9017E
:100200008131502941012D08493E8400203085016B
:10021000853D54011908800040016908A00055304F
:1002200020028131031D4429023041012D02813118
:100230004001031D40296A08A2006B08A30023089F
:1002400022064101B000300A81314001031D3929E5
:100250006908A2002208D5006A08A2002208D60078
:100260006B08A2002208D700A91441012D08AE0096
:10027000AE0A4101AD01AF014001E90181314429DC
:100280004101AD0A1E30AF00143041012D02813111
:100290004001031D50294101AD01AF014001E901B9
:1002A000933382314E010C084001891E922A4E017F
:1002B0008C124101DF088131400103196429410199
:1002C000DF0340018231922A41010530DF00E4085A
:1002D000813140010319AA294101E403E408813175
:1002E0004001031DAA294201200841016002813119
:1002F000400103187F29420120084101E002410129
:100300006008E400813140018E1F89299A138131F0
:100310008A299A174101E8084001031D063241016C
:10032000E908813140010319AA2901304101E8029D
:100330000030E93B6908680481314001031DAA29A6
:100340004101E40181314001A91DA9299A17813198
:10035000AA299A134101E508813140010319EE29C8
:100360004101E503E50881314001031DEE29420109
:10037000210841016102813140010318C329420172
:1003800021084101E10241016108E500813140019C
:100390000E1FCD291A138131CE291A174101EA08FF
:1003A0004001031D06324101EB0881314001031970
:1003B000EE2901304101EA020030EB3B6B086A0490
:1003C00081314001031DEE294101E50181314001E8
:1003D000291EED291A178131EE291A134101E60869
:1003E000823140010319322A4101E603E6088231D5
:1003F0004001031D322A420122084101620282317A
:1004000040010318072A420122084101E20241018A
:100410006208E600823140018E1D112A9A11823154
:10042000122A9A154101EC084001031D06324101D0
:10043000ED08823140010319322A01304101EC02FA
:100440000030ED3B6D086C0482314001031D322AFF
:100450004101E60182314001A91E312A9A158231FB
:10046000322A9A114101E708823140010319762AA4
:100470004101E703E70882314001031D762A42016A
:100480002308410163028231400103184B2A4201D3
:1004900023084101E30241016308E7008231400182
:1004A0008D1F552A99138231562A99174101EE085A
:1004B0004001031D06324101EF088231400103195A
:1004C000762A01304101EE020030EF3B6F086E04E6
:1004D00082314001031D762A4101E701823140014A
:1004E000291F752A99178231762A9913D4088231E7
:1004F0000319812AD403D4088231031D812AD20131
:10050000BE014101AF08823140010319922A410125
:10051000AF03AF0882314001031D922A4101AD01B2
:100520004001E901A7308400203085001200A000BE
:100530001200A2001200A3000008A8000900080091
:100540000130803106208E128E1214308031062048
:100550008E1692121216921012149414941294136E
:1005600093139411141314129414141113121A11D6
:1005700019169A111A139A1399170130A70090307F
:100580008031072099139A170130A70090308031ED
:1005900007209A131A170130A700903080310720E6
:1005A0001A139A150130A7009030803107209A1154
:1005B0000130A7009030803107204B019C014E0193
:1005C0008C1296164B019C309D0048309F00803065
:1005D0009E007E010F3095007D010430CB0042016A
:1005E00008309F0044309B009C0126309E009030D4
:1005F0009D00540104309E0090309D0008309F0003
:1006000004309B000D309C007D011130BC007C014A
:100610008030900091010130920093009401950187
:1006200096009700980199017E01A4007D01143085
:10063000CD004E01A03099008B170B1741010A30F5
:10064000E000E901E8014201A00141016008E40085
:1006500040019A174201A50140018431F124833100
:10066000652383313423FB338331A91C642BA91008
:1006700083312919642B20308500663084002830AE
:10068000A40000301A00A40BFC335508A00055301C
:1006900020028331031D642B41010530B600400167
:1006A0005508A00020084101B70040015608A000ED
:1006B00020084101B80040015708A000200841016E
:1006C000B90040018431CD24080083312918692BF9
:1006D000080029102A08A000013020028331031DE0
:1006E000BA2B8B132B08A200A2088331031D832B86
:1006F0004101E001E401E901E8014001A9114201E1
:10070000A00140019A132B08A2000130220283317C
:10071000031D952B4101E001E401E901E8014001DD
:10072000A9114201A00140019A172B08A200023032
:1007300022028331031DB72B2C084101E000400148
:100740002D084101E901E80040012E084201A00006
:1007500040012F084201A600260C40010318A915EC
:10076000031CA91141016008E40040019A178B178E
:100770008431CC2C023020028431031D082C8B13D1
:100780002B08A200A2088331031DD12B4101E101F6
:10079000E501EB01EA01400129124201A1014001FA
:1007A0001A132B08A200013022028331031DE32B10
:1007B0004101E101E501EB01EA0140012912420199
:1007C000A10140011A172B08A20002302202843135
:1007D000031D052C2C084101E10040012D084101B9
:1007E000EB01EA0040012E084201A10040012F0860
:1007F0004201A600260C400103182916031C2912E9
:1008000041016108E50040011A178B178431CC2C97
:10081000033020028431031D562C8B132B08A200B9
:10082000A2088431031D1F2C4101E201E601ED0104
:10083000EC014001A9124201A20140019A112B08CA
:10084000A200013022028431031D312C4101E2015A
:10085000E601ED01EC014001A9124201A2014001B3
:100860009A152B08A200023022028431031D532C5A
:100870002C084101E20040012D084101ED01EC008E
:1008800040012E084201A20040012F084201A600AB
:10089000260C40010318A916031CA9124101620885
:1008A000E60040019A158B178431CC2C04302002CD
:1008B0008431031DA42C8B132B08A200A2088431C1
:1008C000031D6D2C4101E301E701EF01EE01400141
:1008D00029134201A301400199132B08A200013002
:1008E00022028431031D7F2C4101E301E701EF0166
:1008F000EE01400129134201A301400199172B0881
:10090000A200023022028431031DA12C2C084101D7
:10091000E30040012D084101EF01EE0040012E08E7
:100920004201A30040012F084201A600260C40010D
:1009300003182917031C291341016308E70040012C
:1009400099178B178431CC2CFE3020028431031D83
:10095000BD2C4101E001E401E901E8014001A911D8
:100960004201A00140019A1384318E1DBA2C9A11C4
:100970008431BB2C9A158431CC2CFB30200284317D
:10098000031DCB2C9A139A1141010A30E100EB01AF
:100990001430EA00E501400108009A1799179A15EA
:1009A0001A1741010830B100400185311925410174
:1009B0003108663E840020308501853D3408800082
:1009C000B10A3108663E840020308501853D350836
:1009D0008000B10ADE01400129154E0119164001BF
:1009E000080041016930B6006D30B7007030B800C2
:1009F0006F30B9007230BA007430BB002030BC00D8
:100A00004F30BD007230BE006230BF004330C000C6
:100A10006F30C1006430C2006530C3000D30C400C7
:100A2000DE010F30B100400129154E0119164001B9
:100A300008004101FF30B500B400B30141013308A3
:100A4000663E840020308501853D00084001A000FD
:100A500020084101B406B2010130410134054001D2
:100A6000A0000030410135054001A100210820040B
:100A70008531031D412D4101B536B40C400185314E
:100A8000482D4101B536B40C0130B406A030B5068E
:100A90004101B20A08304101320285314001031D93
:100AA0002C2D4101B30A4101310833028531400147
:100AB000031C1E2D080001340134023403340434B5
:100AC00005340634083409340B340D34103413342F
:100AD000163419341D34213425342A342F34353456
:100AE0003A34413448344F3457345F3468347134C5
:100AF0007B34863491349C34A834B534C334D13437
:0A0B0000DF34EF34FF34FF34FF331D
:020000040001F9
:02000E008C3F25
:08001000FE3F9F0FFF3FFF3F81
:00000001FF
